:08000000803102288731FD2F39
:100C7200F301452E7308700786000030713D87002E
:100C8200FF3081000130F30772087302031C4A2E01
:100C92004B2E3B2E08007E01B801C301CE0120304D
:100CA200F0000030F1005030F200863139268631F2
:100CB200400194019A012030F0000030F1008631A9
:100CC200662686315C2E8031022841010230A00066
:100CD2000230A100A201400120301A134101A21BDF
:100CE2003B2F400100000000000000008600870149
:100CF2004101A10B842E0230A100A00B882E0230EC
:100D0200A000A2178C2E00000000000000000000CE
:100D120000000000000040011A170000000000005F
:100D220000000000000000000000000000001600AB
:100D32009A0016009A0016009A0016009A001600F1
:100D42009A0016009A0016009A0016009A001600E1
:100D52009A0016009A0016009A0016009A001600D1
:100D62009A0016009A0016009A0016009A001600C1
:100D72009A0016009A0016009A0016009A001600B1
:100D82009A0016009A0016009A0016009A001600A1
:100D92009A0016009A0016009A0016009A00160091
:100DA2009A0016009A0016009A0016009A00160081
:100DB2009A0016009A0016009A0016009A00160071
:100DC2009A0016009A0016009A0016009A00160061
:100DD2009A0016009A0016009A0016009A00160051
:100DE2009A0016009A0016009A0016009A00160041
:100DF2009A0016009A0016009A0016009A00160031
:100E02009A0016009A0016009A0016009A00160020
:100E12009A0016009A0016009A0016009A00160010
:100E22009A0016009A0016009A0016009A00160000
:100E32009A0016009A0016009A0016009A001600F0
:100E42009A0016009A0016009A0016009A001600E0
:100E52009A0016009A0016009A0016009A001600D0
:100E62009A0016009A0016009A0016009A00C030E6
:100E72009A006D2EA2130000000000000000000086
:100E82000000000000000000000000000000000060
:100E9200000000000000000040011A1700000000DE
:100EA2000000000000000000000000000000000040
:100EB2000000000000000000000000000000000030
:100EC2000000000000000000000000000000000020
:100ED2000000000000000000000000000000000010
:100EE2000000000000000000000000000000000000
:100EF20000000000000000000000000000000000F0
:100F020000000000000000000000000000000000DF
:100F120000000000000000000000000000000000CF
:100F220000000000000000000000000000000000BF
:100F320000000000000000000000000000000000AF
:100F4200000000000000000000000000000000009F
:100F5200000000000000000000000000000000008F
:100F6200000000000000000000000000000000007F
:100F7200000000000000000000000000000000006F
:100F8200000000000000000000000000000000005F
:100F9200000000000000000000000000000000004F
:100FA200000000000000000000000000000000003F
:100FB200000000000000000000000000000000002F
:100FC200000000000000000000000000000000001F
:100FD200000000000000000000000000000000000F
:100FE20000000000000000000000000000000000FF
:0E0FF200000000006D2E0800400186314C2EDC
:020000040001F9
:04000E00FF3FE73F8A
:04001400FF3FFF3F6C
:00000001FF
