:08000000803102288731FD2F39
:100AC400F301702D7308700786000030713D8700B4
:100AD40073083F39C03E81000130F3077208730286
:100AE400031C752D762D642D08007E01B801C30109
:100AF400CE012030F0000030F1005030F20085319A
:100B040062258531400194019A012030F0000030C3
:100B1400F100853191258531872D803102284101ED
:100B24000230A000F030A100A201A301400187011E
:100B340020301A134101A21B682E4001000000005E
:100B440000000000000086004101A10BB12DF0302F
:100B5400A100A00BB52D0230A000A217B92D0000F2
:100B64000000000000000000000000000000400140
:100B74001A17000000000000000000000000000040
:100B840000000000000016009A0016009A001600EB
:100B94009A0016009A0016009A0016009A00160091
:100BA4009A0016009A0016009A0016009A00160081
:100BB4009A0016009A0016009A0016009A00160071
:100BC4009A0016009A0016009A0016009A00160061
:100BD4009A0016009A0016009A0016009A00160051
:100BE4009A0016009A0016009A0016009A00160041
:100BF4009A0016009A0016009A0016009A00160031
:100C04009A0016009A0016009A0016009A00160020
:100C14009A0016009A0016009A0016009A00160010
:100C24009A0016009A0016009A0016009A00160000
:100C34009A0016009A0016009A0016009A001600F0
:100C44009A0016009A0016009A0016009A001600E0
:100C54009A0016009A0016009A0016009A001600D0
:100C64009A0016009A0016009A0016009A001600C0
:100C74009A0016009A0016009A0016009A001600B0
:100C84009A0016009A0016009A0016009A001600A0
:100C94009A0016009A0016009A0016009A00160090
:100CA4009A0016009A0016009A0016009A00160080
:100CB4009A0016009A0016009A0016009A00160070
:100CC4009A0016009A00C0309A009A2DA2130000D0
:100CD4000000000000000000000000000000000010
:100CE4000000000000000000000000000000000000
:100CF40040011A170000000000000000000000007E
:100D040000000000000000000000000000000000DF
:100D140000000000000000000000000000000000CF
:100D240000000000000000000000000000000000BF
:100D340000000000000000000000000000000000AF
:100D4400000000000000000000000000000000009F
:100D5400000000000000000000000000000000008F
:100D6400000000000000000000000000000000007F
:100D7400000000000000000000000000000000006F
:100D8400000000000000000000000000000000005F
:100D9400000000000000000000000000000000004F
:100DA400000000000000000000000000000000003F
:100DB400000000000000000000000000000000002F
:100DC400000000000000000000000000000000001F
:100DD400000000000000000000000000000000000F
:100DE40000000000000000000000000000000000FF
:100DF40000000000000000000000000000000000EF
:100E040000000000000000000000000000000000DE
:100E140000000000000000000000000000000000CE
:100E240000000000000041010A30A20000000000A0
:100E340000000000000000000000000000000000AE
:100E4400000000000000000000000000400100005D
:100E5400000000001A130000000000000000000061
:100E6400000000000000000000000000000000007E
:100E7400000000000000000000000000000000006E
:100E8400000000001A17000000000000000000002D
:100E9400000000000000000000000000000000004E
:100EA400000000000000000000000000000000003E
:100EB400000000000000000000000000000000002E
:100EC400000000000000000000000000000000001E
:100ED400000000000000000000000000000000000E
:100EE40000000000000000000000000000000000FE
:100EF40000000000000000000000000000000000EE
:100F040000000000000000000000000000000000DD
:100F140000000000000000000000000000000000CD
:100F240000000000000000000000000000000000BD
:100F340000000000000000000000000000000000AD
:100F4400000000000000000000000000000000009D
:100F5400000000000000000000000000000000008D
:100F6400000000000000000000000000000000007D
:100F7400000000000000000000000000000000006D
:100F8400000000000000000000000000000000005D
:100F9400000000000000000000000000000000004D
:100FA400000000000000000000000000000000003D
:100FB400000000004101A20B182F231CE22FE82F90
:100FC40023140230A20040019A13212FA318F02FFA
:100FD400A3141F30A20040019A17242F0000000020
:100FE4000000000000000000000000004101A30117
:0C0FF40040019A2D080040018531772D46
:020000040001F9
:04000E00FF3FE73F8A
:04001400FF3FFF3F6C
:00000001FF
