:08000000803102288731FD2F39
:100C7000F301462E7308700786000030713D87002F
:100C800073083F39C03E81000130F30772087302D8
:100C9000031C4B2E4C2E3A2E08007E01B801C301D6
:100CA000CE012030F0000030F1005030F2008631EB
:100CB00038268631400194019A012030F00000303E
:100CC000F1008631672686315D2E80310228410190
:100CD0000230A0000230A100A2014001203000003B
:100CE0001A134101A21B3C2F40010000000000002C
:100CF0000000860087014101A10B862E0230A10071
:100D0000A00B8A2E0230A000A2178E2E0000000039
:100D100000000000000000000000000040011A1761
:100D200000000000000000000000000000000000C3
:100D300000000000000016009A0016009A0016003D
:100D40009A0016009A0016009A0016009A001600E3
:100D50009A0016009A0016009A0016009A001600D3
:100D60009A0016009A0016009A0016009A001600C3
:100D70009A0016009A0016009A0016009A001600B3
:100D80009A0016009A0016009A0016009A001600A3
:100D90009A0016009A0016009A0016009A00160093
:100DA0009A0016009A0016009A0016009A00160083
:100DB0009A0016009A0016009A0016009A00160073
:100DC0009A0016009A0016009A0016009A00160063
:100DD0009A0016009A0016009A0016009A00160053
:100DE0009A0016009A0016009A0016009A00160043
:100DF0009A0016009A0016009A0016009A00160033
:100E00009A0016009A0016009A0016009A00160022
:100E10009A0016009A0016009A0016009A00160012
:100E20009A0016009A0016009A0016009A00160002
:100E30009A0016009A0016009A0016009A001600F2
:100E40009A0016009A0016009A0016009A001600E2
:100E50009A0016009A0016009A0016009A001600D2
:100E60009A0016009A0016009A0016009A001600C2
:100E70009A00C0309A006E2EA213000000000000FD
:100E80000000000000000000000000000000000062
:100E900000000000000000000000000040011A17E0
:100EA0000000000000000000000000000000000042
:100EB0000000000000000000000000000000000032
:100EC0000000000000000000000000000000000022
:100ED0000000000000000000000000000000000012
:100EE0000000000000000000000000000000000002
:100EF00000000000000000000000000000000000F2
:100F000000000000000000000000000000000000E1
:100F100000000000000000000000000000000000D1
:100F200000000000000000000000000000000000C1
:100F300000000000000000000000000000000000B1
:100F400000000000000000000000000000000000A1
:100F50000000000000000000000000000000000091
:100F60000000000000000000000000000000000081
:100F70000000000000000000000000000000000071
:100F80000000000000000000000000000000000061
:100F90000000000000000000000000000000000051
:100FA0000000000000000000000000000000000041
:100FB0000000000000000000000000000000000031
:100FC0000000000000000000000000000000000021
:100FD0000000000000000000000000000000000011
:100FE0000000000000000000000000000000000001
:100FF0000000000000006E2E0800400186314D2EDA
:020000040001F9
:04000E00FF3FE73F8A
:04001400FF3FFF3F6C
:00000001FF
