:08000000803102288731FD2F39
:100AD800F3017A2D7308700786000030713D870096
:100AE80073083F39C03E81000130F3077208730272
:100AF800031C7F2D802D6E2D08007E01B801C301D7
:100B0800CE012030F0000030F1005030F200853185
:100B18006C258531400194019A012030F0000030A5
:100B2800F10085319B258531912D803102284101C5
:100B38000230A0000230A100A201A30140018701F8
:100B480020301A134101A21B722E40010000000040
:100B580000000000000086004101A10BBB2D0230FF
:100B6800A100A00BBF2D0230A000A217C32D0000CA
:100B7800000000000000000000000000000040012C
:100B88001A1700000000000000000000000000002C
:100B980000000000000016009A0016009A001600D7
:100BA8009A0016009A0016009A0016009A0016007D
:100BB8009A0016009A0016009A0016009A0016006D
:100BC8009A0016009A0016009A0016009A0016005D
:100BD8009A0016009A0016009A0016009A0016004D
:100BE8009A0016009A0016009A0016009A0016003D
:100BF8009A0016009A0016009A0016009A0016002D
:100C08009A0016009A0016009A0016009A0016001C
:100C18009A0016009A0016009A0016009A0016000C
:100C28009A0016009A0016009A0016009A001600FC
:100C38009A0016009A0016009A0016009A001600EC
:100C48009A0016009A0016009A0016009A001600DC
:100C58009A0016009A0016009A0016009A001600CC
:100C68009A0016009A0016009A0016009A001600BC
:100C78009A0016009A0016009A0016009A001600AC
:100C88009A0016009A0016009A0016009A0016009C
:100C98009A0016009A0016009A0016009A0016008C
:100CA8009A0016009A0016009A0016009A0016007C
:100CB8009A0016009A0016009A0016009A0016006C
:100CC8009A0016009A0016009A0016009A0016005C
:100CD8009A0016009A00C0309A00A42DA2130000B2
:100CE80000000000000000000000000000000000FC
:100CF80000000000000000000000000000000000EC
:100D080040011A1700000000000000000000000069
:100D180000000000000000000000000000000000CB
:100D280000000000000000000000000000000000BB
:100D380000000000000000000000000000000000AB
:100D4800000000000000000000000000000000009B
:100D5800000000000000000000000000000000008B
:100D6800000000000000000000000000000000007B
:100D7800000000000000000000000000000000006B
:100D8800000000000000000000000000000000005B
:100D9800000000000000000000000000000000004B
:100DA800000000000000000000000000000000003B
:100DB800000000000000000000000000000000002B
:100DC800000000000000000000000000000000001B
:100DD800000000000000000000000000000000000B
:100DE80000000000000000000000000000000000FB
:100DF80000000000000000000000000000000000EB
:100E080000000000000000000000000000000000DA
:100E180000000000000000000000000000000000CA
:100E280000000000000000000000000000000000BA
:100E380000000000000000000000000000000000AA
:100E4800000000000000000000000000000000009A
:100E580000000000000041010430A2004001000031
:100E6800000000001A13000000000000000000004D
:100E7800000000000000000000000000000000006A
:100E8800000000000000000000000000000000005A
:100E9800000000001A170000000000000000000019
:100EA800000000000000000000000000000000003A
:100EB800000000000000000000000000000000002A
:100EC800000000000000000000000000000000001A
:100ED800000000000000000000000000000000000A
:100EE80000000000000000000000000000000000FA
:100EF80000000000000000000000000000000000EA
:100F080000000000000000000000000000000000D9
:100F180000000000000000000000000000000000C9
:100F280000000000000000000000000000000000B9
:100F380000000000000000000000000000000000A9
:100F48000000000000000000000000000000000099
:100F58000000000000000000000000000000000089
:100F68000000000000000000000000000000000079
:100F78000000000000000000000000000000000069
:100F88000000000000000000000000000000000059
:100F98000000000000000000000000000000000049
:100FA8000000000000000000000000000000000039
:100FB8000000000000000000000000000000000029
:100FC8000000000000000000000000000000000019
:100FD8000000000000000000000000000000000009
:100FE800000000004101A20B322F00004001A42D97
:080FF800080040018531812D44
:020000040001F9
:04000E00FF3FE73F8A
:04001400FF3FFF3F6C
:00000001FF
