:08000000803102288731FD2F39
:100C8600F301512E7308700786000030713D87000E
:100C960073083F39C03E81000130F30772087302C2
:100CA600031C562E572E452E08007E01B801C3019F
:100CB600CE012030F0000030F1005030F2008631D5
:100CC60043268631400194019A012030F00000301D
:100CD600F100863172268631682E80310228410164
:100CE6000230A0000230A100A201400120301A13F8
:100CF600860087014101A10B872E0230A100A00BBF
:100D06008B2E0230A000452F0000000000000000DE
:100D160000000000000000000000000000000000CD
:100D2600000000000000000040011A17000000004B
:100D360000000000000000000000000000000000AD
:100D4600000016009A0016009A0016009A00160077
:100D56009A0016009A0016009A0016009A001600CD
:100D66009A0016009A0016009A0016009A001600BD
:100D76009A0016009A0016009A0016009A001600AD
:100D86009A0016009A0016009A0016009A0016009D
:100D96009A0016009A0016009A0016009A0016008D
:100DA6009A0016009A0016009A0016009A0016007D
:100DB6009A0016009A0016009A0016009A0016006D
:100DC6009A0016009A0016009A0016009A0016005D
:100DD6009A0016009A0016009A0016009A0016004D
:100DE6009A0016009A0016009A0016009A0016003D
:100DF6009A0016009A0016009A0016009A0016002D
:100E06009A0016009A0016009A0016009A0016001C
:100E16009A0016009A0016009A0016009A0016000C
:100E26009A0016009A0016009A0016009A001600FC
:100E36009A0016009A0016009A0016009A001600EC
:100E46009A0016009A0016009A0016009A001600DC
:100E56009A0016009A0016009A0016009A001600CC
:100E66009A0016009A0016009A0016009A001600BC
:100E76009A0016009A0016009A0016009A00C030D2
:100E86009A00792E0000000000000000000000001B
:100E960000000000000040011A17000000000000DA
:100EA600000000000000000000000000000000003C
:100EB600000000000000000000000000000000002C
:100EC600000000000000000000000000000000001C
:100ED600000000000000000000000000000000000C
:100EE60000000000000000000000000000000000FC
:100EF60000000000000000000000000000000000EC
:100F060000000000000000000000000000000000DB
:100F160000000000000000000000000000000000CB
:100F260000000000000000000000000000000000BB
:100F360000000000000000000000000000000000AB
:100F4600000000000000000000000000000000009B
:100F5600000000000000000000000000000000008B
:100F6600000000000000000000000000000000007B
:100F7600000000000000000000000000000000006B
:100F8600000000000000000000000000000000005B
:100F9600000000000000000000000000000000004B
:100FA600000000000000000000000000000000003B
:100FB600000000000000000000000000000000002B
:100FC600000000000000000000000000000000001B
:100FD600000000000000000000000000000000000B
:100FE60000000000000000000000000000000000FB
:0A0FF600792E080040018631582EC4
:020000040001F9
:04000E00FF3FE73F8A
:04001400FF3FFF3F6C
:00000001FF
